{
  "contractName": "BCCRoomBooking",
  "abi": [
    {
      "constant": true,
      "inputs": [
        {
          "name": "",
          "type": "uint256"
        }
      ],
      "name": "rooms",
      "outputs": [
        {
          "name": "id",
          "type": "uint256"
        },
        {
          "name": "owner",
          "type": "address"
        },
        {
          "name": "bookingPerson",
          "type": "address"
        },
        {
          "name": "name",
          "type": "string"
        },
        {
          "name": "description",
          "type": "string"
        },
        {
          "name": "size",
          "type": "string"
        },
        {
          "name": "price",
          "type": "uint256"
        }
      ],
      "payable": false,
      "stateMutability": "view",
      "type": "function"
    },
    {
      "constant": true,
      "inputs": [],
      "name": "owner",
      "outputs": [
        {
          "name": "",
          "type": "address"
        }
      ],
      "payable": false,
      "stateMutability": "view",
      "type": "function"
    },
    {
      "inputs": [
        {
          "name": "_bccTokenAddr",
          "type": "address"
        }
      ],
      "payable": false,
      "stateMutability": "nonpayable",
      "type": "constructor"
    },
    {
      "anonymous": false,
      "inputs": [
        {
          "indexed": true,
          "name": "_id",
          "type": "uint256"
        },
        {
          "indexed": true,
          "name": "_owner",
          "type": "address"
        },
        {
          "indexed": false,
          "name": "_name",
          "type": "string"
        },
        {
          "indexed": false,
          "name": "_description",
          "type": "string"
        },
        {
          "indexed": false,
          "name": "_size",
          "type": "string"
        },
        {
          "indexed": false,
          "name": "_price",
          "type": "uint256"
        }
      ],
      "name": "OfferRoomEvent",
      "type": "event"
    },
    {
      "anonymous": false,
      "inputs": [
        {
          "indexed": true,
          "name": "_id",
          "type": "uint256"
        },
        {
          "indexed": true,
          "name": "_owner",
          "type": "address"
        },
        {
          "indexed": true,
          "name": "_bookingPerson",
          "type": "address"
        },
        {
          "indexed": false,
          "name": "_name",
          "type": "string"
        },
        {
          "indexed": false,
          "name": "_description",
          "type": "string"
        },
        {
          "indexed": false,
          "name": "_size",
          "type": "string"
        },
        {
          "indexed": false,
          "name": "_price",
          "type": "uint256"
        }
      ],
      "name": "BookRoomEvent",
      "type": "event"
    },
    {
      "constant": false,
      "inputs": [
        {
          "name": "_name",
          "type": "string"
        },
        {
          "name": "_description",
          "type": "string"
        },
        {
          "name": "_size",
          "type": "string"
        },
        {
          "name": "_price",
          "type": "uint256"
        }
      ],
      "name": "offerRoom",
      "outputs": [],
      "payable": false,
      "stateMutability": "nonpayable",
      "type": "function"
    },
    {
      "constant": true,
      "inputs": [],
      "name": "getNumberOfRooms",
      "outputs": [
        {
          "name": "",
          "type": "uint256"
        }
      ],
      "payable": false,
      "stateMutability": "view",
      "type": "function"
    },
    {
      "constant": true,
      "inputs": [],
      "name": "getRoomsForBooking",
      "outputs": [
        {
          "name": "",
          "type": "uint256[]"
        }
      ],
      "payable": false,
      "stateMutability": "view",
      "type": "function"
    },
    {
      "constant": false,
      "inputs": [
        {
          "name": "_id",
          "type": "uint256"
        },
        {
          "name": "price",
          "type": "uint256"
        }
      ],
      "name": "bookRoom",
      "outputs": [],
      "payable": true,
      "stateMutability": "payable",
      "type": "function"
    }
  ],
  "bytecode": "0x6060604052341561000f57600080fd5b60405160208061102f83398101604052808051906020019091905050336000806101000a81548173ffffffffffffffffffffffffffffffffffffffff021916908373ffffffffffffffffffffffffffffffffffffffff16021790555080600360006101000a81548173ffffffffffffffffffffffffffffffffffffffff021916908373ffffffffffffffffffffffffffffffffffffffff16021790555050610f73806100bc6000396000f300606060405260043610610078576000357c0100000000000000000000000000000000000000000000000000000000900463ffffffff1680630e57c9c91461007d5780631bae0ac814610169578063787935b4146103a85780638a3a1a18146104125780638da5cb5b14610433578063fde5faf914610488575b600080fd5b341561008857600080fd5b610167600480803590602001908201803590602001908080601f0160208091040260200160405190810160405280939291908181526020018383808284378201915050505050509190803590602001908201803590602001908080601f0160208091040260200160405190810160405280939291908181526020018383808284378201915050505050509190803590602001908201803590602001908080601f016020809104026020016040519081016040528093929190818152602001838380828437820191505050505050919080359060200190919050506104b1565b005b341561017457600080fd5b61018a6004808035906020019091905050610830565b604051808881526020018773ffffffffffffffffffffffffffffffffffffffff1673ffffffffffffffffffffffffffffffffffffffff1681526020018673ffffffffffffffffffffffffffffffffffffffff1673ffffffffffffffffffffffffffffffffffffffff16815260200180602001806020018060200185815260200184810384528881815460018160011615610100020316600290048152602001915080546001816001161561010002031660029004801561028b5780601f106102605761010080835404028352916020019161028b565b820191906000526020600020905b81548152906001019060200180831161026e57829003601f168201915b505084810383528781815460018160011615610100020316600290048152602001915080546001816001161561010002031660029004801561030e5780601f106102e35761010080835404028352916020019161030e565b820191906000526020600020905b8154815290600101906020018083116102f157829003601f168201915b50508481038252868181546001816001161561010002031660029004815260200191508054600181600116156101000203166002900480156103915780601f1061036657610100808354040283529160200191610391565b820191906000526020600020905b81548152906001019060200180831161037457829003601f168201915b50509a505050505050505050505060405180910390f35b34156103b357600080fd5b6103bb6108af565b6040518080602001828103825283818151815260200191508051906020019060200280838360005b838110156103fe5780820151818401526020810190506103e3565b505050509050019250505060405180910390f35b610431600480803590602001909190803590602001909190505061097d565b005b341561043e57600080fd5b610446610e5f565b604051808273ffffffffffffffffffffffffffffffffffffffff1673ffffffffffffffffffffffffffffffffffffffff16815260200191505060405180910390f35b341561049357600080fd5b61049b610e84565b6040518082815260200191505060405180910390f35b6000809054906101000a900473ffffffffffffffffffffffffffffffffffffffff1673ffffffffffffffffffffffffffffffffffffffff163373ffffffffffffffffffffffffffffffffffffffff1614151561050c57600080fd5b60026000815480929190600101919050555060e06040519081016040528060025481526020013373ffffffffffffffffffffffffffffffffffffffff168152602001600073ffffffffffffffffffffffffffffffffffffffff168152602001858152602001848152602001838152602001828152506001600060025481526020019081526020016000206000820151816000015560208201518160010160006101000a81548173ffffffffffffffffffffffffffffffffffffffff021916908373ffffffffffffffffffffffffffffffffffffffff16021790555060408201518160020160006101000a81548173ffffffffffffffffffffffffffffffffffffffff021916908373ffffffffffffffffffffffffffffffffffffffff160217905550606082015181600301908051906020019061064a929190610e8e565b506080820151816004019080519060200190610667929190610e8e565b5060a0820151816005019080519060200190610684929190610e8e565b5060c082015181600601559050503373ffffffffffffffffffffffffffffffffffffffff166002547f9230e4be72030a9aa04289a6b162f48c925001b8c627d09b2c62f4111d6470278686868660405180806020018060200180602001858152602001848103845288818151815260200191508051906020019080838360005b8381101561071f578082015181840152602081019050610704565b50505050905090810190601f16801561074c5780820380516001836020036101000a031916815260200191505b50848103835287818151815260200191508051906020019080838360005b8381101561078557808201518184015260208101905061076a565b50505050905090810190601f1680156107b25780820380516001836020036101000a031916815260200191505b50848103825286818151815260200191508051906020019080838360005b838110156107eb5780820151818401526020810190506107d0565b50505050905090810190601f1680156108185780820380516001836020036101000a031916815260200191505b5097505050505050505060405180910390a350505050565b60016020528060005260406000206000915090508060000154908060010160009054906101000a900473ffffffffffffffffffffffffffffffffffffffff16908060020160009054906101000a900473ffffffffffffffffffffffffffffffffffffffff16908060030190806004019080600501908060060154905087565b6108b7610f0e565b6108bf610f0e565b600080600060025414156108f45760006040518059106108dc5750595b90808252806020026020018201604052509350610977565b6002546040518059106109045750595b9080825280602002602001820160405250925060009150600190505b60025481111515610973576001600082815260200190815260200160002060000154838381518110151561095057fe5b906020019060200201818152505081806001019250508080600101915050610920565b8293505b50505090565b600080600060025411151561099157600080fd5b6000841180156109a357506002548411155b15156109ae57600080fd5b60016000858152602001908152602001600020915060008260020160009054906101000a900473ffffffffffffffffffffffffffffffffffffffff1673ffffffffffffffffffffffffffffffffffffffff16141515610a0c57600080fd5b3373ffffffffffffffffffffffffffffffffffffffff168260010160009054906101000a900473ffffffffffffffffffffffffffffffffffffffff1673ffffffffffffffffffffffffffffffffffffffff1614151515610a6b57600080fd5b828260060154141515610a7d57600080fd5b338260020160006101000a81548173ffffffffffffffffffffffffffffffffffffffff021916908373ffffffffffffffffffffffffffffffffffffffff160217905550600360009054906101000a900473ffffffffffffffffffffffffffffffffffffffff1690508073ffffffffffffffffffffffffffffffffffffffff16631d32e8f98360010160009054906101000a900473ffffffffffffffffffffffffffffffffffffffff1685336000604051602001526040518463ffffffff167c0100000000000000000000000000000000000000000000000000000000028152600401808473ffffffffffffffffffffffffffffffffffffffff1673ffffffffffffffffffffffffffffffffffffffff1681526020018381526020018273ffffffffffffffffffffffffffffffffffffffff1673ffffffffffffffffffffffffffffffffffffffff1681526020019350505050602060405180830381600087803b1515610be857600080fd5b6102c65a03f11515610bf957600080fd5b50505060405180519050508160020160009054906101000a900473ffffffffffffffffffffffffffffffffffffffff1673ffffffffffffffffffffffffffffffffffffffff168260010160009054906101000a900473ffffffffffffffffffffffffffffffffffffffff1673ffffffffffffffffffffffffffffffffffffffff16857f7dfaf43f40d2bd0c264a17945e2f77bf60e05edbbd9eb37a595c59ef26c369f08560030186600401876005018960405180806020018060200180602001858152602001848103845288818154600181600116156101000203166002900481526020019150805460018160011615610100020316600290048015610d405780601f10610d1557610100808354040283529160200191610d40565b820191906000526020600020905b815481529060010190602001808311610d2357829003601f168201915b5050848103835287818154600181600116156101000203166002900481526020019150805460018160011615610100020316600290048015610dc35780601f10610d9857610100808354040283529160200191610dc3565b820191906000526020600020905b815481529060010190602001808311610da657829003601f168201915b5050848103825286818154600181600116156101000203166002900481526020019150805460018160011615610100020316600290048015610e465780601f10610e1b57610100808354040283529160200191610e46565b820191906000526020600020905b815481529060010190602001808311610e2957829003601f168201915b505097505050505050505060405180910390a450505050565b6000809054906101000a900473ffffffffffffffffffffffffffffffffffffffff1681565b6000600254905090565b828054600181600116156101000203166002900490600052602060002090601f016020900481019282601f10610ecf57805160ff1916838001178555610efd565b82800160010185558215610efd579182015b82811115610efc578251825591602001919060010190610ee1565b5b509050610f0a9190610f22565b5090565b602060405190810160405280600081525090565b610f4491905b80821115610f40576000816000905550600101610f28565b5090565b905600a165627a7a72305820f3bcc5aa5a6e5959de58bf2e615d376cd58df256d1ee165530ab260d614e47280029",
  "source": "pragma solidity ^0.4.18;\n\nimport \"./Owned.sol\";\nimport \"./BCCToken.sol\";\n\ncontract BCCRoomBooking is Owned {\n  struct Room {\n    uint256 id;\n    address owner;\n    address bookingPerson;\n    string name;\n    string description;\n    string size;\n    uint256 price;\n  }\n\n  mapping(uint256 => Room) public rooms;\n\n  uint256 roomCounter;\n\n  address bccTokenAddr;\n\n  // Events\n  event OfferRoomEvent (\n    uint indexed _id,\n    address indexed _owner,\n    string _name,\n    string _description,\n    string _size,\n    uint256 _price\n  );\n  event BookRoomEvent (\n    uint indexed _id,\n    address indexed _owner,\n    address indexed _bookingPerson,\n    string _name,\n    string _description,\n    string _size,\n    uint256 _price\n  );\n\n  function BCCRoomBooking(address _bccTokenAddr) public {\n    bccTokenAddr = _bccTokenAddr;\n  }\n\n  function offerRoom(string _name, string _description, string _size, uint256 _price) onlyOwner public {\n    roomCounter ++;\n\n    rooms[roomCounter] = Room (\n        roomCounter,\n        msg.sender,\n        0x0,\n        _name,\n        _description,\n        _size,\n        _price\n    );\n\n    OfferRoomEvent(roomCounter, msg.sender, _name, _description, _size, _price);\n  }\n\n  function getNumberOfRooms() view public returns(uint256)  {\n    return roomCounter;\n  }\n\n  function getRoomsForBooking() public view returns (uint[]) {\n    if(roomCounter == 0) {\n      return new uint[](0);\n    }\n\n    // prepare intermediary array\n    uint[] memory roomIds = new uint[](roomCounter);\n\n    uint numberOfRoomsForBooking = 0;\n    // iterate over rooms\n    for (uint i = 1; i <= roomCounter; i++) {\n      // keep only the ID of rooms not booked yet\n      //if (rooms[i].bookingPerson == 0x0) {\n        roomIds[numberOfRoomsForBooking] = rooms[i].id;\n        numberOfRoomsForBooking++;\n      //}\n    }\n\n    /* copy the articleIds array into the smaller forBooking array\n    uint[] memory forBooking = new uint[](numberOfRoomsForBooking);\n    for (uint j = 0; j < numberOfRoomsForBooking; j++) {\n      forBooking[j] = roomIds[j];\n    }\n    */\n    return (roomIds);\n  }\n\n  function bookRoom(uint _id, uint price) payable public {\n    // we check whether there is at least one room\n    require(roomCounter > 0);\n\n    // we check whether the room exists\n    require(_id > 0 && _id <= roomCounter);\n\n    // we retrieve the room\n    Room storage room = rooms[_id];\n\n    // we check whether the room has not already been sold\n    require(room.bookingPerson == 0x0);\n\n    // we don't allow the owner to buy his/her own room\n    require(room.owner != msg.sender);\n\n    // we check whether the value sent corresponds to the room price\n    require(room.price == price);\n\n    // keep bookingPerson's information\n    room.bookingPerson = msg.sender;\n\n    // the bookingPerson can book the room\n    BCCToken bccToken = BCCToken(bccTokenAddr);\n    bccToken.transferMoney(room.owner, price, msg.sender);\n\n    // trigger the event\n    BookRoomEvent(_id, room.owner, room.bookingPerson, room.name, room.description, room.size, price);\n  }\n\n}\n",
  "sourcePath": "/Users/seabook/works/blockchain/bcc-dapp-scaffolding/contracts/BCCRoomBooking.sol",
  "compiler": {
    "name": "solc",
    "version": "0.4.19+commit.c4cbbb05.Emscripten.clang"
  },
  "schemaVersion": "2.0.0",
  "updatedAt": "2018-04-16T13:02:06.685Z"
}