{
  "contractName": "Owned",
  "abi": [
    {
      "constant": true,
      "inputs": [],
      "name": "owner",
      "outputs": [
        {
          "name": "",
          "type": "address"
        }
      ],
      "payable": false,
      "stateMutability": "view",
      "type": "function"
    },
    {
      "inputs": [],
      "payable": false,
      "stateMutability": "nonpayable",
      "type": "constructor"
    }
  ],
  "bytecode": "0x6060604052341561000f57600080fd5b336000806101000a81548173ffffffffffffffffffffffffffffffffffffffff021916908373ffffffffffffffffffffffffffffffffffffffff16021790555060e78061005d6000396000f300606060405260043610603f576000357c0100000000000000000000000000000000000000000000000000000000900463ffffffff1680638da5cb5b146044575b600080fd5b3415604e57600080fd5b60546096565b604051808273ffffffffffffffffffffffffffffffffffffffff1673ffffffffffffffffffffffffffffffffffffffff16815260200191505060405180910390f35b6000809054906101000a900473ffffffffffffffffffffffffffffffffffffffff16815600a165627a7a72305820e4c35960e2f3e8ec29c103313a77e6d45b31979715af34a540fc7e0c3b6620580029",
  "source": "pragma solidity ^0.4.18;\n\ncontract Owned {\n  // State variable\n  address public owner;\n\n  // Modifiers\n  modifier onlyOwner() {\n    require(msg.sender == owner);\n    _;\n  }\n\n  // constructor\n  function Owned() public {\n    owner = msg.sender;\n  }\n\n\n}\n",
  "sourcePath": "/Users/seabook/works/blockchain/bcc-dapp-scaffolding/contracts/Owned.sol",
  "compiler": {
    "name": "solc",
    "version": "0.4.19+commit.c4cbbb05.Emscripten.clang"
  },
  "schemaVersion": "2.0.0",
  "updatedAt": "2018-04-16T13:00:49.226Z"
}